:100000003CC1CDC31AC4B2C353C152C15DC2B0C258
:100010004FC14EC14DC14CC14BC14AC149C148C17C
:1000200047C146C145C132C535C538C53BC53EC5CA
:1000300041C544C547C571C574C577C57AC57DC579
:1000400080C583C586C5FBC51BC642C662C675C6CC
:100050008DC69CC6A9C60000010101010101010174
:100060000101010101010101010101010101010180
:10007000010101010101010101010102020202026B
:10008000020202020303030303030404040405053C
:1000900005050606060607070708080909090A0AEA
:1000A0000B0B0C0C0D0D0E0E0F1010111112131462
:1000B000141516171818191A1B1C1D1E1F20212293
:1000C0002324262728292B2C2D2F30313334363763
:1000D000393A3C3E3F41434547484A4C4E505254C2
:1000E00056595B5D5F616466686B6D707275777A97
:1000F0007D7F8285888B8D909396999CA0A3A6A9DD
:10010000ACB0B3B6BABDC0C4C7CBCED2D6D9DDE190
:10011000E4E8ECF0F4F8FCFF000305080A0C0F110A
:100120001316181A1D1F222426292B2D303234377E
:10013000393B3E404345474A4C4E515355585A5D12
:100140005F616466686B6D6F727476797B7E8082A6
:100150008587898C8E909395989A9C9FA1A3A6A839
:10016000AAADAFB1B4B6B9BBBDC0C2C4C7C9CBCECE
:10017000D0D3D5D7DADCDEE1E3E5E8EAECEFF1F461
:10018000F6F8FBFDFFF7E3D1C2B5AAA0978F8882EE
:100190007C77726D6965615E5B585553504E4C4A71
:1001A0004846444341403E3D3C3A39383736353481
:1001B000333231302F2F2E2D2C2C2B2A2A29282870
:1001C00027272626252524242323222222212120F5
:1001D00020201F1F1F1E1E1E1D1D1D1C1C1C1C1B46
:1001E0001B1B1B1A1A1A1A19191919191818181879
:1001F000181717171717161616161616151515159C
:1002000015151414141414141413131313131313B3
:1002100013121212121212121212111111111111C3
:100220001111111110101010101010101010100FCB
:100230000F0F0F0F0F0F0F0F0F0F0F0F0E0E0E0ED2
:100240000E0E0E0E0E0E0E0E0E0E0E0D0D0D0D0DD3
:100250000D0D0D0D0D0D0D0D0D0D0D0D0D0C0C0CD1
:100260000C0C0C0C0C0C0C0C0C0C0C0C0C0C0C0CCE
:100270000C0B0B0B0B0B0B0B0B0011241FBECFE554
:10028000D4E0DEBFCDBF11E0A0E6B0E0E6E5FFE0E0
:1002900002C005900D92A830B107D9F711E0A8E08F
:1002A000B1E001C01D92A732B107E1F71FD351C6DB
:1002B000A7CE18BA8FEF87BB8F9A8E9A8D9A979890
:1002C0009698959808959698959881E088BB979A06
:1002D0008DE08A95F1F7000097988FE99FE00197EC
:1002E000F1F700C0000008959698959882E088BBC9
:1002F000979A8DE08A95F1F7000097988FE99FE033
:100300000197F1F700C0000008959698959894E041
:1003100098BB8111C19A6111C09A979A8DE08A9514
:10032000F1F7000097988DE58A95F1F700000895A0
:100330009698959898E098BB8111C29A6111C19ADC
:100340004111C09A979A8DE08A95F1F7000097982D
:100350008DE58A95F1F7000008959698959890E1BB
:1003600098BB8111C39A6111C29A979A8DE08A95C0
:10037000F1F7000097988DE58A95F1F70000089550
:100380009698959890E298BB8111C49A6111C39A8E
:100390004111C29A979A8DE08A95F1F700009798DB
:1003A0008DE58A95F1F700000895969895988F73DA
:1003B000806488BB979A8DE08A95F1F70000979842
:1003C0008DE58A95F1F700000895969895988068D4
:1003D00088BB979A8DE08A95F1F7000097988DE594
:1003E0008A95F1F700000895969A959817BA979A0A
:1003F0008DE08A95F1F7000080B397989FEF97BB47
:10040000089588BB959A9698979A8DE08A95F1F70A
:10041000000097988DE58A95F1F700000895969A67
:10042000959A17BA979A8DE08A95F1F7000080B3F4
:1004300097989FEF97BB0895FC01959A96988081B5
:10044000882379F0319688BB979A8DE08A95F1F7E9
:10045000000097988DE58A95F1F700008191882337
:1004600091F70895CF93DF93EC01CB01009721F42E
:1004700080E38883198225C0FE0140E02AE030E055
:10048000B901FBD4805D8193862F972F4F5F009732
:1004900019F04830A9F70FC0FE01E40FF11D1082DA
:1004A000469579F080E098812291299390838F5F1F
:1004B0008417C8F306C0FE01E40FF11D10824695B3
:1004C000F1CFDF91CF9108951F920F920FB60F9247
:1004D00011248F93EF93FF93919A80910C0186954D
:1004E000805888BD82E287B986EC86B93699FECFFE
:1004F00085B1813230F085B18E3828F4E5B1E15212
:1005000003C0E0E001C0ECE6F0E0E85EFE4FE491FD
:10051000E0930E0185E287B986EC86B93699FECF65
:1005200085B1833330F085B1853F28F4E5B1E353DD
:1005300003C0E0E001C0E1ECF0E0EA5AFF4FE491D3
:10054000E0930D0180912301813051F480912401C9
:10055000882319F41092230103C081508093240151
:10056000FF91EF918F910F900FBE0F901F901895F4
:100570001F920F920FB60F9211242F933F934F9318
:100580005F936F937F938F939F93AF93BF93919854
:1005900080910D01823050F410920B0110920A01EB
:1005A000109209011092080180E099C020910E017B
:1005B00030E090E08217930708F444C0821B930B4D
:1005C0002091080130910901280F391F40E42030A3
:1005D000340728F4309309012093080106C020E075
:1005E00030E43093090120930801209108013091F3
:1005F0000901022E232F000C221F330B000C221F97
:10060000331F40910A0150910B01240F351F40E424
:100610002030340780F430930B0120930A01820FBD
:10062000931F20E48030920708F04CC090930B0198
:1006300080930A0147C08FEF9FE390930B01809353
:100640000A0140C0281B390B8091080190910901D3
:100650002817390738F4821B930B90930901809374
:10066000080104C01092090110920801409108018C
:100670005091090180910A0190910B0128173907C7
:10068000E8F4BA01062E672F000C661F770B000CEA
:10069000661F771F4FEF5FE3461B570B821B930BC1
:1006A00090930B0180930A014817590758F4841B53
:1006B000950B90930B0180930A0104C010920B01DB
:1006C00010920A0180910A0190910B010024880F79
:1006D000991F001C880F991F001C892F902D809353
:1006E0000C0180910E0190E00196AA2797FDA0953C
:1006F000BA2F20911B0130911C0140911D01509196
:100700001E01820F931FA41FB51F80931B0190939E
:100710001C01A0931D01B0931E0180910D0188233F
:1007200011F0909A01C0909880910E018A3078F46F
:1007300084E287B986EC86B93699FECF85B185B15A
:10074000853B10F485B101C084EB80930F01BF910C
:10075000AF919F918F917F916F915F914F913F9159
:100760002F910F900FBE0F901F9018951F920F9210
:100770000FB60F9211248F93809110018F3F21F0BB
:100780008F5F8093100105C08FEF8093110110924D
:1007900012018F910F900FBE0F901F9018951F920E
:1007A0000F920FB60F9211248F939F93AF93BF9325
:1007B000EF93FF93E0911001E0931101109210016B
:1007C0008091130190911401A0911501B09116012F
:1007D0000196A11DB11D8093130190931401A09364
:1007E0001501B09316018091170190911801A09105
:1007F0001901B0911A010196A11DB11D8093170135
:1008000090931801A0931901B0931A01EB3038F0BE
:10081000F0E0E658FE4FE491E093120103C08FEF41
:1008200080931201FF91EF91BF91AF919F918F91B2
:100830000F900FBE0F901F9018951F920F920FB63A
:100840000F9211242F933F934F935F936F937F9356
:100850008F939F93AF93BF93EF93FF93F89460911F
:100860001B0170911C0180911D0190911E012AE9CC
:1008700033E040E050E015D380911F0190912001BA
:10088000A0912101B0912201280F391F4A1F5B1F3F
:1008900020931F01309320014093210150932201A6
:1008A00040911701509118016091190170911A013E
:1008B0008FE090E036D340911F015091200160916C
:1008C00021017091220189E190E02BD383E290E035
:1008D0006091260115D380E078DD80E690E0ACDD04
:1008E00080E473DD89E690E0A7DDFFCF2F923F9291
:1008F0004F925F926F927F928F929F92AF92BF9230
:10090000CF92DF92EF92FF920F931F93DF93CF93DB
:10091000CDB7DEB72C970FB6F894DEBF0FBECDBFB4
:1009200083EE81BB8CE182BB14BA8BEC85BB9098C3
:100930008FE090E0E0D260931701709318018093EC
:10094000190190931A0189E190E0D5D260931F01BB
:1009500070932001809321019093220183E290E023
:10096000C2D2809326011FBC8BE08EBD84EC99E03F
:100970009BBD8ABD8FE790E099BD88BD8AEF83BD9E
:100980008CE085BD85B7826085BF85B7886085BFEF
:100990008BB780688BBF8BB780648BBF88E989BFBA
:1009A000789487DC8FE99FE00197F1F700C00000A1
:1009B00081E061E040E0E4DC81E060E040E0B8DC60
:1009C00082DC81E060E0A1DC80E061E0C6DC84E6FE
:1009D0008093240181E08093230180E0F6DC82E7AC
:1009E00090E02ADD80E4F1DC8BE790E025DD0F2E3E
:1009F000F2E0CF2EF1E0DF2EF02D8FEA96E30197A3
:100A0000F1F700C0000083B32091250130E090E0B1
:100A100080959095837090702817390709F4CEC09F
:100A200083B38095837080932501823009F44EC092
:100A3000833009F492C0813009F0C0C08091260152
:100A4000982F9F70983010F48F5F01C08750282F27
:100A50002F70982F92959F70291791F380932601FC
:100A600080E0B3DC809126018F7092E390932401A3
:100A700091E09093230190E001978830910508F070
:100A80009DC08D5E9F4F8F939F93089584E890E063
:100A9000D3DC94C08DE890E0CFDC90C086E990E094
:100AA000CBDC8CC08FE990E0C7DC88C088EA90E09E
:100AB000C3DC84C081EB90E0BFDC80C08AEB90E0B7
:100AC000BBDC7CC083EC90E0B7DC78C08091260171
:100AD000882314F0805F01C08057282F2F70982F33
:100AE00092959F702917A1F38093260180E46DDC15
:100AF0008091260182958F7092E39093240191E07A
:100B00009093230190E001978830910508F056C03A
:100B1000855E9F4F8F939F93089584E890E08CDCCF
:100B20004DC08DE890E088DC49C086E990E084DC27
:100B300045C08FE990E080DC41C088EA90E07CDC31
:100B40003DC081EB90E078DC39C08AEB90E074DC4A
:100B500035C083EC90E070DC31C01092130110922C
:100B60001401109215011092160160911B017091F1
:100B70001C0180911D0190911E012AE933E040E0A3
:100B800050E08FD180911F0190912001A09121010F
:100B9000B0912201280F391F4A1F5B1F20931F01AC
:100BA00030932001409321015093220110921B01A8
:100BB00010921C0110921D0110921E0180912301C0
:100BC000882309F01ACF00E010E07E010894E11CB0
:100BD000F11C0F2EF5E03F2EF02D0F2EF9E12F2EF8
:100BE000F02D0F2EFAE98F2EF3E09F2EF0E0AF2EBE
:100BF000F0E0BF2EF02D0F2EF0E04F2EF0E15F2E33
:100C0000FEE06F2EF0E07F2EF02D0115110539F07A
:100C100080E4DBDBE0912601E295EF7005C080E027
:100C2000D4DBE0912601EF708E2F90E0FC0131972C
:100C3000E830F10508F0DFC0ED5DFF4F09946091E9
:100C40001701709118018091190190911A012BE8F8
:100C500031E040E050E0E6D09B01AC01012E14E110
:100C600056954795379527951A95D1F7102DC701B9
:100C7000B901F8DBC701E0DB8CEC90E0DDDBBEC046
:100C800060911B0170911C0180911D0190911E01CA
:100C9000A301920106D129873A874B875C8760912F
:100CA0001F0170912001809121019091220128EE75
:100CB00033E040E050E0F5D069857A85620F731F1C
:100CC000C701D0DBC701B8DB80ED90E0B5DB96C093
:100CD000609113017091140180911501909116019A
:100CE00022E831E040E050E09DD09B01AC01012EB4
:100CF0001AE056954795379527951A95D1F7102DF7
:100D0000C701B901AFDBC70197DB84ED90E094DB4D
:100D100075C060911B0170911C0180911D01909123
:100D20001E01A5019401BDD0C701B9019BDBC7011C
:100D300083DB87ED90E080DB61C060910F01643B55
:100D400020F08CED90E078DB59C0603558F070E011
:100D500060557040C70186DBC7016EDB82EE90E014
:100D60006BDB4CC085EE90E067DB48C080910F01E3
:100D7000622D77D0682F70E0665F7F4FC70172DB0E
:100D8000C7015ADB8EEE90E057DB38C080910E0130
:100D9000632D67D0682FC70170E064DBC7014CDBAF
:100DA00081EF90E049DB2AC060911201669566955B
:100DB000C70170E057DBC7013FDB8EE222DB6091A9
:100DC000120170E063707070CB01880F991F660F7D
:100DD000771F660F771F660F771F680F791F75954E
:100DE000679575956795C7013DDBC70125DB84EFE6
:100DF00090E022DB03C089EF90E01EDBC6011CDB24
:100E00000F5F1F4F0230110509F0FFCE80912301C3
:100E1000882309F0F2CD89E18093240181E0809359
:100E20002301EBCD629FD001739FF001829FE00D03
:100E3000F11D649FE00DF11D929FF00D839FF00D59
:100E4000749FF00D659FF00D9927729FB00DE11D05
:100E5000F91F639FB00DE11DF91FBD01CF011124E2
:100E60000895991B79E004C0991F961708F0961B06
:100E7000881F7A95C9F780950895AA1BBB1B51E17D
:100E800007C0AA1FBB1FA617B70710F0A61BB70BFA
:100E9000881F991F5A95A9F780959095BC01CD019F
:100EA0000895A1E21A2EAA1BBB1BFD010DC0AA1FAB
:100EB000BB1FEE1FFF1FA217B307E407F50720F0C3
:100EC000A21BB30BE40BF50B661F771F881F991F3E
:100ED0001A9469F760957095809590959B01AC0187
:100EE000BD01CF010895E199FECF9FBB8EBBE09A73
:100EF00099278DB30895A6E1B0E044E050E01BC00F
:100F0000262FE199FECF9FBB8EBBE09A01970DB2D1
:100F1000021631F02DBB0FB6F894E29AE19A0FBE9B
:100F200008950396272FEDDFEBDF252FEADF242F2F
:100F3000E8CFDC01CB01FC01E199FECF06C0FFBB8D
:100F4000EEBBE09A31960DB20D9241505040B8F789
:060F50000895F894FFCFA4
:100F56002020474F4F442020002020425945202082
:100F660020002048454C4C4F2020007665722E31DB
:100F76002E387000546F742E6469737400546F7445
:100F86002E636F6E730044697374616E636500430C
:100F96006F6E73756D65640052657374206361705E
:100FA60000416363752E2020200043757272656EC2
:100FB600742000537065656420202000206B6D004E
:100FC60020416800206D00206D41680031303020DE
:100FD6002500202500212020302025202100205614
:100FE600002041006B6D2F68004572722020202082
:080FF600200020202020200033
:00000001FF
