:1000000034C13BC388C320C34BC14AC183C2CCC2E5
:1000100047C146C145C144C143C142C141C140C1BC
:100020003FC13EC13DC124C227C22AC22DC230C237
:1000300033C236C239C214C534C547C567C57AC58F
:1000400092C5A1C5AEC50000010101010101010178
:100050000101010101010101010101010101010190
:10006000010101010101010101010102020202027B
:10007000020202020303030303030404040405054C
:1000800005050606060607070708080909090A0AFA
:100090000B0B0C0C0D0D0E0E0F1010111112131472
:1000A000141516171818191A1B1C1D1E1F202122A3
:1000B0002324262728292B2C2D2F30313334363773
:1000C000393A3C3E3F41434547484A4C4E505254D2
:1000D00056595B5D5F616466686B6D707275777AA7
:1000E0007D1B8285888B8D909396999CA0A3A6A951
:1000F000ACB0B3B6BABDC0C4C7CBCED2D6D9DDE1A1
:10010000E4E8ECF0F4F8FCFF000305080A0C0F111A
:100110001316181A1D1F222426292B2D303234378E
:10012000393B3E404345474A4C4E515355585A5D22
:100130005F616466686B6D6F727476797B7E8082B6
:100140008587898C8E909395989A9C9FA1A3A6A849
:10015000AAADAFB1B4B6B9BBBDC0C2C4C7C9CBCEDE
:10016000D0D3D5D7DADCDEE1E3E5E8EAECEFF1F471
:10017000F6F8FBFDFFF7E3D1C2B5AAA0978F8882FE
:100180007C77726D6965615E5B585553504E4C4A81
:100190004846444341403E3D3C3A39383736353491
:1001A000333231302F2F2E2D2C2C2B2A2A29282880
:1001B0002727262625252424232322222221212005
:1001C00020201F1F1F1E1E1E1D1D1D1C1C1C1C1B56
:1001D0001B1B1B1A1A1A1A19191919191818181889
:1001E00018171717171716161616161615151515AC
:1001F00015151414141414141413131313131313C4
:1002000013121212121212121212111111111111D3
:100210001111111110101010101010101010100FDB
:100220000F0F0F0F0F0F0F0F0F0F0F0F0E0E0E0EE2
:100230000E0E0E0E0E0E0E0E0E0E0E0D0D0D0D0DE3
:100240000D0D0D0D0D0D0D0D0D0D0D0D0D0C0C0CE1
:100250000C0C0C0C0C0C0C0C0C0C0C0C0C0C0C0CDE
:100260000C0B0B0B0B0B0B0B0B0011241FBECFE564
:10027000D4E0DEBFCDBF11E0A0E6B0E0E0E3FDE0FA
:1002800002C005900D92A230B107D9F711E0A2E0AB
:10029000B1E001C01D92A132B107E1F795D246C588
:1002A000AFCE18BA8FEF87BB8F9A8E9A8D9A979898
:1002B0009698959808959698959881E088BB979A16
:1002C0008DE08A95F1F7000097988FE99FE00197FC
:1002D000F1F700C0000008959698959882E088BBD9
:1002E000979A8DE08A95F1F7000097988FE99FE043
:1002F0000197F1F700C0000008959698959894E052
:1003000098BB8111C19A6111C09A979A8DE08A9524
:10031000F1F7000097988DE58A95F1F700000895B0
:100320009698959898E098BB8111C29A6111C19AEC
:100330004111C09A979A8DE08A95F1F7000097983D
:100340008DE58A95F1F7000008959698959890E1CB
:1003500098BB8111C39A6111C29A979A8DE08A95D0
:10036000F1F7000097988DE58A95F1F70000089560
:100370009698959890E298BB8111C49A6111C39A9E
:100380004111C29A979A8DE08A95F1F700009798EB
:100390008DE58A95F1F700000895969895988F73EA
:1003A000806488BB979A8DE08A95F1F70000979852
:1003B0008DE58A95F1F700000895969895988068E4
:1003C00088BB979A8DE08A95F1F7000097988DE5A4
:1003D0008A95F1F700000895969A959817BA979A1A
:1003E0008DE08A95F1F7000080B397989FEF97BB57
:1003F000089588BB959A9698979A8DE08A95F1F71B
:10040000000097988DE58A95F1F700000895969A77
:10041000959A17BA979A8DE08A95F1F7000080B304
:1004200097989FEF97BB0895FC01959A96988081C5
:10043000882379F0319688BB979A8DE08A95F1F7F9
:10044000000097988DE58A95F1F700008191882347
:1004500091F7089522E320931E0121E020931D01CE
:10046000FC013197E830F10510F5ED5EFF4F09947E
:1004700080E690E0D9DF089589E690E0D5DF089521
:1004800082E790E0D1DF08958BE790E0CDDF08951B
:1004900084E890E0C9DF08958DE890E0C5DF089515
:1004A00086E990E0C1DF08958FE990E0BDDF08950F
:1004B000CF93DF93EC01CB01009721F480E3888395
:1004C000198225C0FE0140E02AE030E0B901C2D324
:1004D000805D8193862F972F4F5F009719F04830EA
:1004E000A9F70FC0FE01E40FF11D1082469579F0C7
:1004F00080E098812291299390838F5F8417C8F3BD
:1005000006C0FE01E40FF11D10824695F1CFDF9188
:10051000CF9108951F920F920FB60F9211248F93CF
:10052000EF93FF93919A809106018695805888BD3C
:1005300082E287B986EC86B93699FECF85B185B15E
:100540008D3810F4EFED01C0ECE6F0E0E85FFE4F0F
:10055000E491E093080185E287B986EC86B9369983
:10056000FECF85B185B1843F10F4EDEC01C0E1EC24
:10057000F0E0EA5BFF4FE491E093070180911D01F9
:10058000813051F480911E01882319F410921D01CD
:1005900003C0815080931E01FF91EF918F910F90C6
:1005A0000FBE0F901F9018951F920F920FB60F92CB
:1005B00011242F933F934F935F936F938F939F9348
:1005C000AF93BF9391981092060160910801862F16
:1005D00090E00196AA2797FDA095BA2F20911501CA
:1005E000309116014091170150911801820F931F0D
:1005F000A41FB51F8093150190931601A0931701B6
:10060000B09318016B3010F0909A10C084E287B953
:1006100086EC86B93699FECF85B185B1843B10F45E
:1006200080E001C084EB809309019098BF91AF9165
:100630009F918F916F915F914F913F912F910F906B
:100640000FBE0F901F9018951F920F920FB60F922A
:1006500011248F9380910A018F3F21F08F5F809347
:100660000A0105C08FEF80930B0110920C018F914E
:100670000F900FBE0F901F9018951F920F920FB6FC
:100680000F9211248F939F93AF93BF93EF93FF9398
:10069000E0910A01E0930B0110920A0180910D0193
:1006A00090910E01A0910F01B09110010196A11D32
:1006B000B11D80930D0190930E01A0930F01B09393
:1006C00010018091110190911201A0911301B0913C
:1006D00014010196A11DB11D809311019093120187
:1006E000A0931301B0931401EB3038F0F0E0E65919
:1006F000FE4FE491E0930C0103C08FEF80930C0157
:10070000FF91EF91BF91AF919F918F910F900FBE8D
:100710000F901F9018951F920F920FB60F921124F1
:100720002F933F934F935F936F937F938F939F93F9
:10073000AF93BF93EF93FF93F8946091150170917D
:100740001601809117019091180120E030E14EE0F0
:1007500050E094D28091190190911A01A0911B014F
:10076000B0911C01280F391F4A1F5B1F20931901EC
:1007700030931A0140931B0150931C0140911101C9
:100780005091120160911301709114018FE090E07B
:10079000B5D24091190150911A0160911B017091DD
:1007A0001C0189E190E0AAD283E290E060912001EF
:1007B00094D280E002DE88EA90E036DE80E4FDDD5F
:1007C00081EB90E031DEFFCF2F923F924F925F920C
:1007D0006F927F928F929F92AF92BF92CF92DF9251
:1007E000EF92FF920F931F93DF93CF93CDB7DEB7B6
:1007F00028970FB6F894DEBF0FBECDBF83EE81BB46
:100800008CE182BB14BA8BEC85BB90988FE090E0B2
:100810005FD2609311017093120180931301909342
:10082000140189E190E054D26093190170931A0188
:1008300080931B0190931C0183E290E041D280934E
:1008400020011FBC8BE08EBD84EC99E09BBD8ABD6E
:100850008FE790E099BD88BD8AEF83BD8CE085BDB0
:1008600085B7826085BF85B7886085BF8BB7806894
:100870008BBF8BB780648BBF88E989BF789411DD0B
:100880008FE99FE00197F1F700C0000081E061E08F
:1008900040E06EDD81E060E040E042DD0CDD81E0C3
:1008A00060E02BDD80E061E050DD84E680931E0196
:1008B00081E080931D0180E080DD8AEB90E0B4DD73
:1008C00080E47BDD83EC90E0AFDD0F2EF0E08F2E37
:1008D000F0E19F2EFEE0AF2EF0E0BF2EF02D7E0166
:1008E0000894E11CF11C0F2EFCECCF2EF0E0DF2E63
:1008F000F02D83B320911F0130E090E0809590951A
:10090000837090702817390709F46FC083B38095FE
:10091000837080931F01823001F18330B9F18130FF
:1009200009F063C080912001982F9F70983010F4D7
:100930008F5F01C08750282F2F70982F92959F703E
:10094000291791F38093200180E037DD8091200109
:1009500090E08F7090707EDD48C0809120018823E8
:1009600014F0805F01C08057282F2F70982F929528
:100970009F702917A1F38093200180E41EDD8091F0
:10098000200182958F7090E065DD2FC010920D01DF
:1009900010920E0110920F0110921001609115013A
:1009A000709116018091170190911801A501940191
:1009B00065D18091190190911A01A0911B01B0910C
:1009C0001C01820F931FA41FB51F809319019093E0
:1009D0001A01A0931B01B0931C01109215011092F3
:1009E0001601109217011092180180911D018823A1
:1009F00009F07FCF00E010E00F2EF5E03F2EF02D44
:100A00000F2EF9E12F2EF02D0F2EF8EE4F2EF3E0E2
:100A10005F2EF0E06F2EF0E07F2EF02D0115110516
:100A200059F080E4CADCC601FFDC80E4C6DCE0915A
:100A30002001E295EF7009C080E0BFDCC601F4DC64
:100A400080E0BBDCE0912001EF708E2F90E0FC0194
:100A50003197E830F10508F0CBC0E55EFF4F09940F
:100A60006091110170911201809113019091140114
:100A70002BE831E040E050E0C2D09B01AC01012EF8
:100A800014E156954795379527951A95D1F7102D6E
:100A9000C701B9010DDDC701C7DC85ED90E0C4DCFD
:100AA000A7C06091190170911A0180911B0190916A
:100AB0001C01A3019201E2D0C701B901F9DCC70111
:100AC000B3DC89ED90E0B0DC93C060910D017091D2
:100AD0000E0180910F019091100122E831E040E079
:100AE00050E08DD09B01AC01012E1AE05695479540
:100AF000379527951A95D1F7102DC701B901D8DC84
:100B0000C70192DC8DED90E08FDC72C06091150121
:100B1000709116018091170190911801A50194011F
:100B2000ADD0C701B901C4DCC7017EDC80EE90E026
:100B30007BDC5EC060910901643B20F085EE90E0B3
:100B400073DC56C0603558F070E060557040C701E6
:100B5000AFDCC70169DC8BEE90E066DC49C08EEE4D
:100B600090E062DC45C080910901622D67D0682F5A
:100B700070E0665F7F4FC7019BDCC70155DC87EFE4
:100B800090E052DC35C080910801632D57D0682F6A
:100B9000C70170E08DDCC70147DC8AEF90E044DCE0
:100BA00027C060910C0166956695C70170E080DCF6
:100BB000C7013ADC8EE21DDC80910C0190E083706D
:100BC00090709C01220F331FBC01660F771F660FC8
:100BD000771F660F771F620F731F75956795759561
:100BE0006795C70165DCC7011FDC8DEF90E01CDC59
:100BF0000F5F1F4F0230110509F010CF7ACE629FB0
:100C0000D001739FF001829FE00DF11D649FE00D04
:100C1000F11D929FF00D839FF00D749FF00D659F65
:100C2000F00D9927729FB00DE11DF91F639FB00D64
:100C3000E11DF91FBD01CF0111240895991B79E031
:100C400004C0991F961708F0961B881F7A95C9F75C
:100C500080950895AA1BBB1B51E107C0AA1FBB1FAB
:100C6000A617B70710F0A61BB70B881F991F5A9538
:100C7000A9F780959095BC01CD010895A1E21A2EA7
:100C8000AA1BBB1BFD010DC0AA1FBB1FEE1FFF1F30
:100C9000A217B307E407F50720F0A21BB30BE40B80
:100CA000F50B661F771F881F991F1A9469F76095C7
:100CB0007095809590959B01AC01BD01CF01089581
:100CC000E199FECF9FBB8EBBE09A99278DB3089523
:100CD000A6E1B0E044E050E01BC0262FE199FECF32
:100CE0009FBB8EBBE09A01970DB2021631F02DBB6F
:100CF0000FB6F894E29AE19A0FBE08950396272F53
:100D0000EDDFEBDF252FEADF242FE8CFDC01CB017D
:100D1000FC01E199FECF06C0FFBBEEBBE09A319625
:100D20000DB20D9241505040B8F70895F894FFCF9E
:100D3000546F742E6469737400546F742E636F6EF5
:100D4000730044697374616E636500436F6E7375FD
:100D50006D65640052657374206361700041636364
:100D6000752E2020200043757272656E742000532A
:100D700070656564202020002020474F4F442020CC
:100D80000020204259452020200053504545442052
:100D9000262000202020504F5745520045727220D7
:100DA0002020202000206B6D0020416800206D0075
:100DB000206D4168003130302025002025002120A1
:100DC000203020252021002056002041006B6D2F6F
:020DD0006800B9
:00000001FF
