:100000003CC1F0C33DC4D5C353C152C15DC2B0C2EF
:100010004FC14EC14DC14CC14BC14AC149C148C17C
:1000200047C146C145C155C558C55BC55EC561C51B
:1000300064C567C56AC594C597C59AC59DC5A0C561
:10004000A3C5A6C5A9C51EC63EC665C685C698C6B3
:10005000B0C6BFC6CCC6000001010101010101010B
:100060000101010101010101010101010101010180
:10007000010101010101010101010102020202026B
:10008000020202020303030303030404040405053C
:1000900005050606060607070708080909090A0AEA
:1000A0000B0B0C0C0D0D0E0E0F1010111112131462
:1000B000141516171818191A1B1C1D1E1F20212293
:1000C0002324262728292B2C2D2F30313334363763
:1000D000393A3C3E3F41434547484A4C4E505254C2
:1000E00056595B5D5F616466686B6D707275777A97
:1000F0007D7F8285888B8D909396999CA0A3A6A9DD
:10010000ACB0B3B6BABDC0C4C7CBCED2D6D9DDE190
:10011000E4E8ECF0F4F8FCFF000305080A0C0F110A
:100120001316181A1D1F222426292B2D303234377E
:10013000393B3E404345474A4C4E515355585A5D12
:100140005F616466686B6D6F727476797B7E8082A6
:100150008587898C8E909395989A9C9FA1A3A6A839
:10016000AAADAFB1B4B6B9BBBDC0C2C4C7C9CBCECE
:10017000D0D3D5D7DADCDEE1E3E5E8EAECEFF1F461
:10018000F6F8FBFDFFF7E3D1C2B5AAA0978F8882EE
:100190007C77726D6965615E5B585553504E4C4A71
:1001A0004846444341403E3D3C3A39383736353481
:1001B000333231302F2F2E2D2C2C2B2A2A29282870
:1001C00027272626252524242323222222212120F5
:1001D00020201F1F1F1E1E1E1D1D1D1C1C1C1C1B46
:1001E0001B1B1B1A1A1A1A19191919191818181879
:1001F000181717171717161616161616151515159C
:1002000015151414141414141413131313131313B3
:1002100013121212121212121212111111111111C3
:100220001111111110101010101010101010100FCB
:100230000F0F0F0F0F0F0F0F0F0F0F0F0E0E0E0ED2
:100240000E0E0E0E0E0E0E0E0E0E0E0D0D0D0D0DD3
:100250000D0D0D0D0D0D0D0D0D0D0D0D0D0C0C0CD1
:100260000C0C0C0C0C0C0C0C0C0C0C0C0C0C0C0CCE
:100270000C0B0B0B0B0B0B0B0B0011241FBECFE554
:10028000D4E0DEBFCDBF11E0A0E6B0E0ECE9FFE0D6
:1002900002C005900D92A830B107D9F711E0A8E08F
:1002A000B1E001C01D92A732B107E1F742D374C695
:1002B000A7CE18BA8FEF87BB8F9A8E9A8D9A979890
:1002C0009698959808959698959881E088BB979A06
:1002D0008DE08A95F1F7000097988FE99FE00197EC
:1002E000F1F700C0000008959698959882E088BBC9
:1002F000979A8DE08A95F1F7000097988FE99FE033
:100300000197F1F700C0000008959698959894E041
:1003100098BB8111C19A6111C09A979A8DE08A9514
:10032000F1F7000097988DE58A95F1F700000895A0
:100330009698959898E098BB8111C29A6111C19ADC
:100340004111C09A979A8DE08A95F1F7000097982D
:100350008DE58A95F1F7000008959698959890E1BB
:1003600098BB8111C39A6111C29A979A8DE08A95C0
:10037000F1F7000097988DE58A95F1F70000089550
:100380009698959890E298BB8111C49A6111C39A8E
:100390004111C29A979A8DE08A95F1F700009798DB
:1003A0008DE58A95F1F700000895969895988F73DA
:1003B000806488BB979A8DE08A95F1F70000979842
:1003C0008DE58A95F1F700000895969895988068D4
:1003D00088BB979A8DE08A95F1F7000097988DE594
:1003E0008A95F1F700000895969A959817BA979A0A
:1003F0008DE08A95F1F7000080B397989FEF97BB47
:10040000089588BB959A9698979A8DE08A95F1F70A
:10041000000097988DE58A95F1F700000895969A67
:10042000959A17BA979A8DE08A95F1F7000080B3F4
:1004300097989FEF97BB0895FC01959A96988081B5
:10044000882379F0319688BB979A8DE08A95F1F7E9
:10045000000097988DE58A95F1F700008191882337
:1004600091F70895CF93DF93EC01CB01009721F42E
:1004700080E38883198225C0FE0140E02AE030E055
:10048000B9011ED5805D8193862F972F4F5F00970E
:1004900019F04830A9F70FC0FE01E40FF11D1082DA
:1004A000469579F080E098812291299390838F5F1F
:1004B0008417C8F306C0FE01E40FF11D10824695B3
:1004C000F1CFDF91CF9108951F920F920FB60F9247
:1004D00011248F93EF93FF93919A80910C0186954D
:1004E000805888BD82E287B986EC86B93699FECFFE
:1004F00085B1813230F085B18E3828F4E5B1E15212
:1005000003C0E0E001C0ECE6F0E0E85EFE4FE491FD
:10051000E0930E0185E287B986EC86B93699FECF65
:1005200085B1833330F085B1853F28F4E5B1E353DD
:1005300003C0E0E001C0E1ECF0E0EA5AFF4FE491D3
:10054000E0930D0180912301813051F480912401C9
:10055000882319F41092230103C081508093240151
:10056000FF91EF918F910F900FBE0F901F901895F4
:100570001F920F920FB60F9211242F933F934F9318
:100580005F936F937F938F939F93AF93BF93919854
:1005900020910D01223050F410920B0110920A01AB
:1005A000109209011092080120E0BCC0253080F4AF
:1005B000822F90E09695982F88279795879590930E
:1005C0000B0180930A011092090110920801AAC040
:1005D00060910C016B3030F090910E0180E070E082
:1005E0006FD405C060910E0170E0660F771F81E047
:1005F0006130780758F080910A0190910B01880FC3
:10060000892F881F990B9195282F8CC082E061302B
:10061000780710F010920D0180910D0190E086177F
:100620009707D0F1861B970B2091080130910901A3
:10063000280F391F33232CF0309309012093080130
:1006400006C02FEF3FE73093090120930801409146
:10065000080150910901440F452F441F550B20916B
:100660000A0130910B01240F351F332374F03093AE
:100670000B0120930A01820F931F99230CF448C0A9
:1006800090930B0180930A0143C08FEF9FE79093F3
:100690000B0180930A013CC0681B790B8091080113
:1006A000909109016817790738F4861B970B90938E
:1006B00009018093080104C01092090110920801F9
:1006C000209108013091090180910A0190910B015C
:1006D00068177907C8F4A901440F452F441F550B2B
:1006E0002FEF30E0241B350B861B970B90930B01EB
:1006F00080930A012817390758F4821B930B9093B3
:100700000B0180930A0104C010920B0110920A01A0
:1007100080910A0190910B01880F892F881F990BF6
:100720009195282F20930C0180910E0190E0019665
:10073000AA2797FDA095BA2F20911B0130911C018B
:1007400040911D0150911E01820F931FA41FB51FE0
:1007500080931B0190931C01A0931D01B0931E0177
:1007600080910D01882311F0909A01C0909880919A
:100770000E018A3078F484E287B986EC86B936991E
:10078000FECF85B185B1853B10F485B101C084EB06
:1007900080930F01BF91AF919F918F917F916F9146
:1007A0005F914F913F912F910F900FBE0F901F902F
:1007B00018951F920F920FB60F9211248F9380916C
:1007C00010018F3F21F08F5F8093100105C08FEFE4
:1007D00080931101109212018F910F900FBE0F9014
:1007E0001F9018951F920F920FB60F9211248F939E
:1007F0009F93AF93BF93EF93FF93E0911001E0932A
:100800001101109210018091130190911401A09197
:100810001501B09116010196A11DB11D8093130120
:1008200090931401A0931501B093160180911701C4
:1008300090911801A0911901B0911A010196A11D82
:10084000B11D8093170190931801A0931901B093E3
:100850001A01EB3038F0F0E0E658FE4FE491E093F7
:10086000120103C08FEF80931201FF91EF91BF91AE
:10087000AF919F918F910F900FBE0F901F90189581
:100880001F920F920FB60F9211242F933F934F9305
:100890005F936F937F938F939F93AF93BF93EF93E8
:1008A000FF93F89460911B0170911C0180911D01D0
:1008B00090911E012AE933E040E050E015D3809189
:1008C0001F0190912001A0912101B0912201280FD8
:1008D000391F4A1F5B1F20931F0130932001409353
:1008E000210150932201409117015091180160910C
:1008F000190170911A018FE090E036D340911F01E9
:1009000050912001609121017091220189E190E0D4
:100910002BD383E290E06091260115D380E055DD72
:1009200080E690E089DD80E450DD89E690E084DDBA
:10093000FFCF2F923F924F925F926F927F928F9252
:100940009F92AF92BF92CF92DF92EF92FF920F935E
:100950001F93DF93CF93CDB7DEB72C970FB6F894E4
:10096000DEBF0FBECDBF83EE81BB8CE182BB14BA6C
:100970008BEC85BB90988FE090E0E0D260931701FC
:10098000709318018093190190931A0189E190E006
:10099000D5D260931F017093200180932101909321
:1009A000220183E290E0C2D2809326011FBC8BE03B
:1009B0008EBD84EC99E09BBD8ABD8FE790E099BD28
:1009C00088BD8AEF83BD8CE085BD85B7826085BF19
:1009D00085B7886085BF8BB780688BBF8BB7806415
:1009E0008BBF88E989BF789464DC8FE99FE0019729
:1009F000F1F700C0000081E061E040E0C1DC81E08F
:100A000060E040E095DC5FDC81E060E07EDC80E07F
:100A100061E0A3DC84E68093240181E080932301DC
:100A200080E0D3DC82E790E007DD80E4CEDC8BE77A
:100A300090E002DD0F2EF2E0CF2EF1E0DF2EF02D60
:100A40008FEA96E30197F1F700C0000083B320918D
:100A5000250130E090E08095909583709070281784
:100A6000390709F4CEC083B3809583708093250144
:100A7000823009F44EC0833009F492C0813009F00D
:100A8000C0C080912601982F9F70983010F48F5F1E
:100A900001C08750282F2F70982F92959F7029178B
:100AA00091F38093260180E090DC809126018F7085
:100AB00092E39093240191E09093230190E00197B9
:100AC0008830910508F09DC08D5E9F4F8F939F9356
:100AD000089584E890E0B0DC94C08DE890E0ACDC50
:100AE00090C086E990E0A8DC8CC08FE990E0A4DC9F
:100AF00088C088EA90E0A0DC84C081EB90E09CDCB8
:100B000080C08AEB90E098DC7CC083EC90E094DCC1
:100B100078C080912601882314F0805F01C080573F
:100B2000282F2F70982F92959F702917A1F38093EB
:100B3000260180E44ADC8091260182958F7092E341
:100B40009093240191E09093230190E001978830E5
:100B5000910508F056C0855E9F4F8F939F9308952F
:100B600084E890E069DC4DC08DE890E065DC49C028
:100B700086E990E061DC45C08FE990E05DDC41C032
:100B800088EA90E059DC3DC081EB90E055DC39C04B
:100B90008AEB90E051DC35C083EC90E04DDC31C055
:100BA0001092130110921401109215011092160167
:100BB00060911B0170911C0180911D0190911E019B
:100BC0002AE933E040E050E08FD180911F019091FD
:100BD0002001A0912101B0912201280F391F4A1F45
:100BE0005B1F20931F0130932001409321015093FC
:100BF000220110921B0110921C0110921D011092F3
:100C00001E0180912301882309F01ACF00E010E033
:100C10007E010894E11CF11C0F2EF5E03F2EF02D13
:100C20000F2EF9E12F2EF02D0F2EFAE98F2EF3E083
:100C30009F2EF0E0AF2EF0E0BF2EF02D0F2EF0E053
:100C40004F2EF0E15F2EFEE06F2EF0E07F2EF02DB4
:100C50000115110539F080E4B8DBE0912601E29539
:100C6000EF7005C080E0B1DBE0912601EF708E2FC0
:100C700090E0FC013197E830F10508F0DFC0ED5D50
:100C8000FF4F09946091170170911801809119012B
:100C900090911A012BE831E040E050E0E6D09B0152
:100CA000AC01012E14E156954795379527951A9575
:100CB000D1F7102DC701B901D5DBC701BDDB8CEC25
:100CC00090E0BADBBEC060911B0170911C01809165
:100CD0001D0190911E01A301920106D129873A8737
:100CE0004B875C8760911F017091200180912101E9
:100CF0009091220128EE33E040E050E0F5D0698584
:100D00007A85620F731FC701ADDBC70195DB80EDEC
:100D100090E092DB96C06091130170911401809174
:100D200015019091160122E831E040E050E09DD09D
:100D30009B01AC01012E1AE05695479537952795F2
:100D40001A95D1F7102DC701B9018CDBC70174DBEF
:100D500084ED90E071DB75C060911B0170911C0106
:100D600080911D0190911E01A5019401BDD0C70184
:100D7000B90178DBC70160DB87ED90E05DDB61C026
:100D800060910F01643B20F08CED90E055DB59C081
:100D9000603558F070E060557040C70163DBC701F3
:100DA0004BDB82EE90E048DB4CC085EE90E044DB0C
:100DB00048C080910F01622D77D0682F70E0665F88
:100DC0007F4FC7014FDBC70137DB8EEE90E034DB8E
:100DD00038C080910E01632D67D0682FC70170E085
:100DE00041DBC70129DB81EF90E026DB2AC060915F
:100DF000120166956695C70170E034DBC7011CDB04
:100E00008EE2FFDA6091120170E063707070CB01C6
:100E1000880F991F660F771F660F771F660F771F62
:100E2000680F791F7595679575956795C7011ADBEA
:100E3000C70102DB84EF90E0FFDA03C089EF90E0A6
:100E4000FBDAC601F9DA0F5F1F4F0230110509F016
:100E5000FFCE80912301882309F0F2CD89E18093B0
:100E6000240181E080932301EBCD629FD001739F29
:100E7000F001829FE00DF11D649FE00DF11D929F36
:100E8000F00D839FF00D749FF00D659FF00D992775
:100E9000729FB00DE11DF91F639FB00DE11DF91F99
:100EA000BD01CF0111240895991B79E004C0991F59
:100EB000961708F0961B881F7A95C9F780950895B4
:100EC000AA1BBB1B51E107C0AA1FBB1FA617B70770
:100ED00010F0A61BB70B881F991F5A95A9F780958C
:100EE0009095BC01CD010895A1E21A2EAA1BBB1B4F
:100EF000FD010DC0AA1FBB1FEE1FFF1FA217B307E6
:100F0000E407F50720F0A21BB30BE40BF50B661FFB
:100F1000771F881F991F1A9469F7609570958095BF
:100F200090959B01AC01BD01CF010895E199FECFE1
:100F30009FBB8EBBE09A99278DB30895A6E1B0E0E0
:100F400044E050E01BC0262FE199FECF9FBB8EBB33
:100F5000E09A01970DB2021631F02DBB0FB6F8944E
:100F6000E29AE19A0FBE08950396272FEDDFEBDF9B
:100F7000252FEADF242FE8CFDC01CB01FC01E1992A
:100F8000FECF06C0FFBBEEBBE09A31960DB20D92CC
:0C0F900041505040B8F70895F894FFCF8E
:100F9C002020474F4F44202000202042594520203C
:100FAC0020002048454C4C4F2020007665722E20A6
:100FBC00312E3800546F742E6469737400546F743E
:100FCC002E636F6E730044697374616E63650043C6
:100FDC006F6E73756D656400526573742063617018
:100FEC0000416363752E2020200043757272656E7C
:100FFC00742000537065656420202000206B6D0008
:10100C0020416800206D00206D4168003130302097
:10101C0025002025002120203020252021002056CD
:10102C00002041006B6D2F6800457272202020203B
:08103C002000202020202000EC
:00000001FF
