:100000003CC1E6C333C4CBC353C152C15DC2B0C20D
:100010004FC14EC14DC14CC14BC14AC149C148C17C
:1000200047C146C145C14BC54EC551C554C557C54D
:100030005AC55DC560C58AC58DC590C593C596C5B1
:1000400099C59CC59FC514C634C65BC67BC68EC603
:10005000A6C6B5C6C2C60001010101010202020224
:100060000303030404040505060607070808090935
:100070000A0B0B0C0C0D0E0F0F101112121314158E
:1000800016171818191A1B1C1D1E1F2021222425A3
:10009000262728292A2C2D2E2F3032333435373875
:1000A000393B3C3D3F404143444647484A4B4D4E17
:1000B000505153545657595A5C5D5F60626365678F
:1000C000686A6B6D6F7072737577787A7C7D7F80EC
:1000D00082848587898A8C8E8F91939596989A9B36
:1000E0009D9FA0A2A4A5A7A9ABACAEB0B1B3B5B774
:1000F000B8BABCBEBFC1C3C5C6C8CACCCDCFD1D3A8
:10010000D5D6D8DADCDEDFE1E3E5E7E9EAECEEF0CC
:10011000F2F4F6F8FAFCFEFF000305080A0C0F11D2
:100120001316181A1D1F222426292B2D303234377E
:10013000393B3E404345474A4C4E515355585A5D12
:100140005F616466686B6D6F727476797B7E8082A6
:100150008587898C8E909395989A9C9FA1A3A6A839
:10016000AAADAFB1B4B6B9BBBDC0C2C4C7C9CBCECE
:10017000D0D3D5D7DADCDEE1E3E5E8EAECEFF1F461
:10018000F6F8FBFDFFF7E3D1C2B5AAA0978F8882EE
:100190007C77726D6965615E5B585553504E4C4A71
:1001A0004846444341403E3D3C3A39383736353481
:1001B000333231302F2F2E2D2C2C2B2A2A29282870
:1001C00027272626252524242323222222212120F5
:1001D00020201F1F1F1E1E1E1D1D1D1C1C1C1C1B46
:1001E0001B1B1B1A1A1A1A19191919191818181879
:1001F000181717171717161616161616151515159C
:1002000015151414141414141413131313131313B3
:1002100013121212121212121212111111111111C3
:100220001111111110101010101010101010100FCB
:100230000F0F0F0F0F0F0F0F0F0F0F0F0E0E0E0ED2
:100240000E0E0E0E0E0E0E0E0E0E0E0D0D0D0D0DD3
:100250000D0D0D0D0D0D0D0D0D0D0D0D0D0C0C0CD1
:100260000C0C0C0C0C0C0C0C0C0C0C0C0C0C0C0CCE
:100270000C0B0B0B0B0B0B0B0B0011241FBECFE554
:10028000D4E0DEBFCDBF11E0A0E6B0E0E8E8FFE0DB
:1002900002C005900D92A830B107D9F711E0A8E08F
:1002A000B1E001C01D92A832B107E1F738D36AC6A8
:1002B000A7CE18BA8FEF87BB8F9A8E9A8D9A979890
:1002C0009698959808959698959881E088BB979A06
:1002D0008DE08A95F1F7000097988FE99FE00197EC
:1002E000F1F700C0000008959698959882E088BBC9
:1002F000979A8DE08A95F1F7000097988FE99FE033
:100300000197F1F700C0000008959698959894E041
:1003100098BB8111C19A6111C09A979A8DE08A9514
:10032000F1F7000097988DE58A95F1F700000895A0
:100330009698959898E098BB8111C29A6111C19ADC
:100340004111C09A979A8DE08A95F1F7000097982D
:100350008DE58A95F1F7000008959698959890E1BB
:1003600098BB8111C39A6111C29A979A8DE08A95C0
:10037000F1F7000097988DE58A95F1F70000089550
:100380009698959890E298BB8111C49A6111C39A8E
:100390004111C29A979A8DE08A95F1F700009798DB
:1003A0008DE58A95F1F700000895969895988F73DA
:1003B000806488BB979A8DE08A95F1F70000979842
:1003C0008DE58A95F1F700000895969895988068D4
:1003D00088BB979A8DE08A95F1F7000097988DE594
:1003E0008A95F1F700000895969A959817BA979A0A
:1003F0008DE08A95F1F7000080B397989FEF97BB47
:10040000089588BB959A9698979A8DE08A95F1F70A
:10041000000097988DE58A95F1F700000895969A67
:10042000959A17BA979A8DE08A95F1F7000080B3F4
:1004300097989FEF97BB0895FC01959A96988081B5
:10044000882379F0319688BB979A8DE08A95F1F7E9
:10045000000097988DE58A95F1F700008191882337
:1004600091F70895CF93DF93EC01CB01009721F42E
:1004700080E38883198225C0FE0140E02AE030E055
:10048000B90114D5805D8193862F972F4F5F009718
:1004900019F04830A9F70FC0FE01E40FF11D1082DA
:1004A000469579F080E098812291299390838F5F1F
:1004B0008417C8F306C0FE01E40FF11D10824695B3
:1004C000F1CFDF91CF9108951F920F920FB60F9247
:1004D00011248F93EF93FF93919A80910C0186954D
:1004E000805888BD82E287B986EC86B93699FECFFE
:1004F00085B1813230F085B18E3828F4E5B1E15212
:1005000003C0E0E001C0ECE6F0E0E85EFE4FE491FD
:10051000E0930E0185E287B986EC86B93699FECF65
:1005200085B1833330F085B1853F28F4E5B1E353DD
:1005300003C0E0E001C0E1ECF0E0EA5AFF4FE491D3
:10054000E0930D0180912401813051F480912501C7
:10055000882319F41092240103C08150809325014F
:10056000FF91EF918F910F900FBE0F901F901895F4
:100570001F920F920FB60F9211242F933F934F9318
:100580005F936F937F938F939F93AF93BF93919854
:1005900080910D01823070F410920B0110920A01CB
:1005A000109209011092080180910E0180931001B0
:1005B00080E0AEC060910E0170E090911001691B67
:1005C000710990910C0140E851E0491B5109649F69
:1005D0009001659F300D749F300D1124220F331F41
:1005E000232F332790E08217930708F444C0821B1F
:1005F000930B2091080130910901280F391F40E425
:100600002030340728F4309309012093080106C0F4
:1006100020E030E430930901209308012091080183
:1006200030910901022E232F000C221F330B000CE6
:10063000221F331F40910A0150910B01240F351FD7
:1006400040E42030340780F430930B0120930A01FA
:10065000820F931F20E48030920708F04CC09093E3
:100660000B0180930A0147C08FEF9FE390930B012A
:1006700080930A0140C0281B390B8091080190919A
:1006800009012817390738F4821B930B909309014D
:100690008093080104C01092090110920801409152
:1006A00008015091090180910A0190910B012817CE
:1006B0003907E8F4BA01062E672F000C661F770B86
:1006C000000C661F771F4FEF5FE3461B570B821B23
:1006D000930B90930B0180930A014817590758F424
:1006E000841B950B90930B0180930A0104C0109218
:1006F0000B0110920A0180910A0190910B010024D4
:10070000880F991F001C880F991F001C892F902D9E
:1007100080930C0180910E0190E00196AA2797FD2D
:10072000A095BA2F20911C0130911D0140911E010E
:1007300050911F01820F931FA41FB51F80931C01AE
:1007400090931D01A0931E01B0931F0180910D0194
:10075000882311F0909A01C0909880910E018A3000
:1007600078F484E287B986EC86B93699FECF85B1F4
:1007700085B1853B10F485B101C084EB80930F01F6
:10078000BF91AF919F918F917F916F915F914F91A9
:100790003F912F910F900FBE0F901F9018951F92B1
:1007A0000F920FB60F9211248F93809111018F3FFA
:1007B00021F08F5F8093110105C08FEF80931201AC
:1007C000109213018F910F900FBE0F901F901895EC
:1007D0001F920F920FB60F9211248F939F93AF9396
:1007E000BF93EF93FF93E0911101E09312011092F8
:1007F00011018091140190911501A0911601B09101
:1008000017010196A11DB11D80931401909315014C
:10081000A0931601B09317018091180190911901CE
:10082000A0911A01B0911B010196A11DB11D8093E9
:10083000180190931901A0931A01B0931B01EB309A
:1008400038F0F0E0E658FE4FE491E093130103C066
:100850008FEF80931301FF91EF91BF91AF919F9123
:100860008F910F900FBE0F901F9018951F920F92AF
:100870000FB60F9211242F933F934F935F936F9373
:100880007F938F939F93AF93BF93EF93FF93F894CE
:1008900060911C0170911D0180911E0190911F01BA
:1008A0002AE933E040E050E015D380912001909197
:1008B0002101A0912201B0912301280F391F4A1F65
:1008C0005B1F20932001309321014093220150931C
:1008D0002301409118015091190160911A01709102
:1008E0001B018FE090E036D340912001509121010F
:1008F000609122017091230189E190E02BD383E282
:1009000090E06091270115D380E05FDD80E690E004
:1009100093DD80E45ADD89E690E08EDDFFCF2F92F3
:100920003F924F925F926F927F928F929F92AF927F
:10093000BF92CF92DF92EF92FF920F931F93DF93BC
:10094000CF93CDB7DEB72C970FB6F894DEBF0FBEAE
:10095000CDBF83EE81BB8CE182BB14BA8BEC85BB2F
:1009600090988FE090E0E0D26093180170931901A5
:1009700080931A0190931B0189E190E0D5D2609396
:10098000200170932101809322019093230183E23F
:1009900090E0C2D2809327011FBC8BE08EBD84EC17
:1009A00099E09BBD8ABD8FE790E099BD88BD8AEF35
:1009B00083BD8CE085BD85B7826085BF85B78860C3
:1009C00085BF8BB780688BBF8BB780648BBF88E98E
:1009D00089BF78946EDC8FE99FE00197F1F700C042
:1009E000000081E061E040E0CBDC81E060E040E0DD
:1009F0009FDC69DC81E060E088DC80E061E0ADDC08
:100A000084E68093250181E08093240180E0DDDC91
:100A100082E790E011DD80E4D8DC8BE790E00CDD2C
:100A20000F2EF2E0CF2EF1E0DF2EF02D8FEA96E3CD
:100A30000197F1F700C0000083B32091260130E058
:100A400090E080959095837090702817390709F48D
:100A5000CEC083B38095837080932601823009F4E1
:100A60004EC0833009F492C0813009F0C0C080913B
:100A70002701982F9F70983010F48F5F01C0875026
:100A8000282F2F70982F92959F70291791F380939C
:100A9000270180E09ADC809127018F7092E3909388
:100AA000250191E09093240190E001978830910511
:100AB00008F09DC08D5E9F4F8F939F93089584E8AB
:100AC00090E0BADC94C08DE890E0B6DC90C086E996
:100AD00090E0B2DC8CC08FE990E0AEDC88C088EAA0
:100AE00090E0AADC84C081EB90E0A6DC80C08AEBB9
:100AF00090E0A2DC7CC083EC90E09EDC78C080912A
:100B00002701882314F0805F01C08057282F2F70A1
:100B1000982F92959F702917A1F38093270180E465
:100B200054DC8091270182958F7092E39093250188
:100B300091E09093240190E001978830910508F0AE
:100B400056C0855E9F4F8F939F93089584E890E0F1
:100B500073DC4DC08DE890E06FDC49C086E990E021
:100B60006BDC45C08FE990E067DC41C088EA90E02B
:100B700063DC3DC081EB90E05FDC39C08AEB90E044
:100B80005BDC35C083EC90E057DC31C0109214017F
:100B900010921501109216011092170160911C011C
:100BA00070911D0180911E0190911F012AE933E08F
:100BB00040E050E08FD18091200190912101A091DF
:100BC0002201B0912301280F391F4A1F5B1F209378
:100BD0002001309321014093220150932301109270
:100BE0001C0110921D0110921E0110921F01809194
:100BF0002401882309F01ACF00E010E07E01089458
:100C0000E11CF11C0F2EF5E03F2EF02D0F2EF9E127
:100C10002F2EF02D0F2EFAE98F2EF3E09F2EF0E00D
:100C2000AF2EF0E0BF2EF02D0F2EF0E04F2EF0E1B2
:100C30005F2EFEE06F2EF0E07F2EF02D01151105E6
:100C400039F080E4C2DBE0912701E295EF7005C046
:100C500080E0BBDBE0912701EF708E2F90E0FC017C
:100C60003197E830F10508F0DFC0ED5DFF4F0994E2
:100C7000609118017091190180911A0190911B01E6
:100C80002BE831E040E050E0E6D09B01AC01012EC2
:100C900014E156954795379527951A95D1F7102D5C
:100CA000C701B901DFDBC701C7DB8CEC90E0C4DB17
:100CB000BEC060911C0170911D0180911E01909138
:100CC0001F01A301920106D129873A874B875C87D0
:100CD0006091200170912101809122019091230166
:100CE00028EE33E040E050E0F5D069857A85620F68
:100CF000731FC701B7DBC7019FDB80ED90E09CDB72
:100D000096C0609114017091150180911601909127
:100D1000170122E831E040E050E09DD09B01AC019A
:100D2000012E1AE056954795379527951A95D1F7D4
:100D3000102DC701B90196DBC7017EDB84ED90E081
:100D40007BDB75C060911C0170911D0180911E01BB
:100D500090911F01A5019401BDD0C701B90182DBAB
:100D6000C7016ADB87ED90E067DB61C060910F012E
:100D7000643B20F08CED90E05FDB59C0603558F0AB
:100D800070E060557040C7016DDBC70155DB82EE36
:100D900090E052DB4CC085EE90E04EDB48C0809185
:100DA0000F01622D77D0682F70E0665F7F4FC7011B
:100DB00059DBC70141DB8EEE90E03EDB38C080910D
:100DC0000E01632D67D0682FC70170E04BDBC701B0
:100DD00033DB81EF90E030DB2AC060911301669530
:100DE0006695C70170E03EDBC70126DB8EE209DBBA
:100DF0006091130170E063707070CB01880F991FD0
:100E0000660F771F660F771F660F771F680F791FB2
:100E10007595679575956795C70124DBC7010CDB50
:100E200084EF90E009DB03C089EF90E005DBC601A9
:100E300003DB0F5F1F4F0230110509F0FFCE8091D9
:100E40002401882309F0F2CD89E18093250181E016
:100E500080932401EBCD629FD001739FF001829FAC
:100E6000E00DF11D649FE00DF11D929FF00D839F39
:100E7000F00D749FF00D659FF00D9927729FB00DD6
:100E8000E11DF91F639FB00DE11DF91FBD01CF01E9
:100E900011240895991B79E004C0991F961708F052
:100EA000961B881F7A95C9F780950895AA1BBB1BCE
:100EB00051E107C0AA1FBB1FA617B70710F0A61B5A
:100EC000B70B881F991F5A95A9F780959095BC017B
:100ED000CD010895A1E21A2EAA1BBB1BFD010DC076
:100EE000AA1FBB1FEE1FFF1FA217B307E407F507DA
:100EF00020F0A21BB30BE40BF50B661F771F881FB6
:100F0000991F1A9469F760957095809590959B014B
:100F1000AC01BD01CF010895E199FECF9FBB8EBB0F
:100F2000E09A99278DB30895A6E1B0E044E050E03F
:100F30001BC0262FE199FECF9FBB8EBBE09A019785
:100F40000DB2021631F02DBB0FB6F894E29AE19A79
:100F50000FBE08950396272FEDDFEBDF252FEADF85
:100F6000242FE8CFDC01CB01FC01E199FECF06C0C4
:100F7000FFBBEEBBE09A31960DB20D92415050404E
:080F8000B8F70895F894FFCFC3
:100F88002020474F4F442020002020425945202050
:100F980020002048454C4C4F2020007665722E31A9
:100FA8002E396C00546F742E6469737400546F7416
:100FB8002E636F6E730044697374616E63650043DA
:100FC8006F6E73756D65640052657374206361702C
:100FD80000416363752E2020200043757272656E90
:100FE800742000537065656420202000206B6D001C
:100FF80020416800206D00206D41680031303020AC
:1010080025002025002120203020252021002056E1
:10101800002041006B6D2F6800457272202020204F
:08102800200020202020200000
:00000001FF
